{
  "abi": [
    {
      "inputs": [],
      "stateMutability": "nonpayable",
      "type": "constructor"
    },
    {
      "anonymous": false,
      "inputs": [
        {
          "indexed": true,
          "internalType": "address",
          "name": "user",
          "type": "address"
        },
        {
          "indexed": false,
          "internalType": "uint256",
          "name": "amount",
          "type": "uint256"
        }
      ],
      "name": "Credit",
      "type": "event"
    },
    {
      "anonymous": false,
      "inputs": [
        {
          "indexed": true,
          "internalType": "address",
          "name": "donor",
          "type": "address"
        },
        {
          "indexed": false,
          "internalType": "uint256",
          "name": "amount",
          "type": "uint256"
        }
      ],
      "name": "Donation",
      "type": "event"
    },
    {
      "inputs": [
        {
          "internalType": "address",
          "name": "",
          "type": "address"
        }
      ],
      "name": "balances",
      "outputs": [
        {
          "internalType": "uint256",
          "name": "",
          "type": "uint256"
        }
      ],
      "stateMutability": "view",
      "type": "function"
    },
    {
      "inputs": [],
      "name": "checkBalance",
      "outputs": [
        {
          "internalType": "uint256",
          "name": "",
          "type": "uint256"
        }
      ],
      "stateMutability": "view",
      "type": "function"
    },
    {
      "inputs": [
        {
          "internalType": "address",
          "name": "user",
          "type": "address"
        }
      ],
      "name": "creditUser",
      "outputs": [],
      "stateMutability": "nonpayable",
      "type": "function"
    },
    {
      "inputs": [],
      "name": "donate",
      "outputs": [],
      "stateMutability": "payable",
      "type": "function"
    },
    {
      "inputs": [],
      "name": "owner",
      "outputs": [
        {
          "internalType": "address",
          "name": "",
          "type": "address"
        }
      ],
      "stateMutability": "view",
      "type": "function"
    },
    {
      "inputs": [
        {
          "internalType": "uint256",
          "name": "amount",
          "type": "uint256"
        }
      ],
      "name": "withdraw",
      "outputs": [],
      "stateMutability": "nonpayable",
      "type": "function"
    },
    {
      "stateMutability": "payable",
      "type": "receive"
    }
  ],
  "devdoc": {
    "kind": "dev",
    "methods": {},
    "version": 1
  },
  "evm": {
    "assembly": "    /* \"smile.sol\":60:1481  contract SmileCredit {... */\n  mstore(0x40, 0x80)\n    /* \"smile.sol\":416:467  constructor() {... */\n  callvalue\n  dup1\n  iszero\n  tag_1\n  jumpi\n  0x00\n  dup1\n  revert\ntag_1:\n  pop\n    /* \"smile.sol\":441:446  owner */\n  0x00\n    /* \"smile.sol\":441:459  owner = msg.sender */\n  dup1\n  sload\n  not(sub(shl(0xa0, 0x01), 0x01))\n  and\n    /* \"smile.sol\":449:459  msg.sender */\n  caller\n    /* \"smile.sol\":441:459  owner = msg.sender */\n  or\n  swap1\n  sstore\n    /* \"smile.sol\":60:1481  contract SmileCredit {... */\n  dataSize(sub_0)\n  dup1\n  dataOffset(sub_0)\n  0x00\n  codecopy\n  0x00\n  return\nstop\n\nsub_0: assembly {\n        /* \"smile.sol\":60:1481  contract SmileCredit {... */\n      mstore(0x40, 0x80)\n      jumpi(tag_1, lt(calldatasize, 0x04))\n      shr(0xe0, calldataload(0x00))\n      dup1\n      0xc71daccb\n      gt\n      tag_9\n      jumpi\n      dup1\n      0xc71daccb\n      eq\n      tag_6\n      jumpi\n      dup1\n      0xe89e3ac7\n      eq\n      tag_7\n      jumpi\n      dup1\n      0xed88c68e\n      eq\n      tag_8\n      jumpi\n      0x00\n      dup1\n      revert\n    tag_9:\n      dup1\n      0x27e235e3\n      eq\n      tag_3\n      jumpi\n      dup1\n      0x2e1a7d4d\n      eq\n      tag_4\n      jumpi\n      dup1\n      0x8da5cb5b\n      eq\n      tag_5\n      jumpi\n      0x00\n      dup1\n      revert\n    tag_1:\n      jumpi(tag_2, calldatasize)\n        /* \"smile.sol\":1439:1470  Donation(msg.sender, msg.value) */\n      mload(0x40)\n        /* \"smile.sol\":1460:1469  msg.value */\n      callvalue\n        /* \"#utility.yul\":160:185   */\n      dup2\n      mstore\n        /* \"smile.sol\":1448:1458  msg.sender */\n      caller\n      swap1\n        /* \"smile.sol\":1439:1470  Donation(msg.sender, msg.value) */\n      0x5d8bc849764969eb1bcc6d0a2f55999d0167c1ccec240a4f39cf664ca9c4148e\n      swap1\n        /* \"#utility.yul\":148:150   */\n      0x20\n        /* \"#utility.yul\":133:151   */\n      add\n        /* \"smile.sol\":1439:1470  Donation(msg.sender, msg.value) */\n      mload(0x40)\n      dup1\n      swap2\n      sub\n      swap1\n      log2\n        /* \"smile.sol\":60:1481  contract SmileCredit {... */\n      stop\n    tag_2:\n      0x00\n      dup1\n      revert\n        /* \"smile.sol\":115:158  mapping(address => uint256) public balances */\n    tag_3:\n      callvalue\n      dup1\n      iszero\n      tag_14\n      jumpi\n      0x00\n      dup1\n      revert\n    tag_14:\n      pop\n      tag_15\n      tag_16\n      calldatasize\n      0x04\n      tag_17\n      jump\t// in\n    tag_16:\n      mstore(0x20, 0x01)\n      0x00\n      swap1\n      dup2\n      mstore\n      0x40\n      swap1\n      keccak256\n      sload\n      dup2\n      jump\n    tag_15:\n      mload(0x40)\n        /* \"#utility.yul\":160:185   */\n      swap1\n      dup2\n      mstore\n        /* \"#utility.yul\":148:150   */\n      0x20\n        /* \"#utility.yul\":133:151   */\n      add\n        /* \"smile.sol\":115:158  mapping(address => uint256) public balances */\n    tag_19:\n      mload(0x40)\n      dup1\n      swap2\n      sub\n      swap1\n      return\n        /* \"smile.sol\":1048:1277  function withdraw(uint256 amount) external onlyOwner {... */\n    tag_4:\n      callvalue\n      dup1\n      iszero\n      tag_20\n      jumpi\n      0x00\n      dup1\n      revert\n    tag_20:\n      pop\n      tag_21\n      tag_22\n      calldatasize\n      0x04\n      tag_23\n      jump\t// in\n    tag_22:\n      tag_24\n      jump\t// in\n    tag_21:\n      stop\n        /* \"smile.sol\":88:108  address public owner */\n    tag_5:\n      callvalue\n      dup1\n      iszero\n      tag_25\n      jumpi\n      0x00\n      dup1\n      revert\n    tag_25:\n      pop\n      sload(0x00)\n      tag_26\n      swap1\n      sub(shl(0xa0, 0x01), 0x01)\n      and\n      dup2\n      jump\n    tag_26:\n      mload(0x40)\n      sub(shl(0xa0, 0x01), 0x01)\n        /* \"#utility.yul\":859:914   */\n      swap1\n      swap2\n      and\n        /* \"#utility.yul\":841:915   */\n      dup2\n      mstore\n        /* \"#utility.yul\":829:831   */\n      0x20\n        /* \"#utility.yul\":814:832   */\n      add\n        /* \"smile.sol\":88:108  address public owner */\n      tag_19\n        /* \"#utility.yul\":695:921   */\n      jump\n        /* \"smile.sol\":1285:1388  function checkBalance() external view returns (uint256) {... */\n    tag_6:\n      callvalue\n      dup1\n      iszero\n      tag_30\n      jumpi\n      0x00\n      dup1\n      revert\n    tag_30:\n      pop\n        /* \"smile.sol\":1359:1380  address(this).balance */\n      selfbalance\n        /* \"smile.sol\":1285:1388  function checkBalance() external view returns (uint256) {... */\n      jump(tag_15)\n        /* \"smile.sol\":475:862  function creditUser(address user) external onlyOwner {... */\n    tag_7:\n      callvalue\n      dup1\n      iszero\n      tag_34\n      jumpi\n      0x00\n      dup1\n      revert\n    tag_34:\n      pop\n      tag_21\n      tag_36\n      calldatasize\n      0x04\n      tag_17\n      jump\t// in\n    tag_36:\n      tag_37\n      jump\t// in\n        /* \"smile.sol\":870:1040  function donate() external payable {... */\n    tag_8:\n      tag_21\n      tag_39\n      jump\t// in\n        /* \"smile.sol\":1048:1277  function withdraw(uint256 amount) external onlyOwner {... */\n    tag_24:\n        /* \"smile.sol\":340:345  owner */\n      and(sub(shl(0xa0, 0x01), 0x01), sload(0x00))\n        /* \"smile.sol\":326:336  msg.sender */\n      caller\n        /* \"smile.sol\":326:345  msg.sender == owner */\n      eq\n        /* \"smile.sol\":318:388  require(msg.sender == owner, \"Only the owner can perform this action\") */\n      tag_41\n      jumpi\n      mload(0x40)\n      shl(0xe5, 0x461bcd)\n      dup2\n      mstore\n        /* \"#utility.yul\":1128:1130   */\n      0x20\n        /* \"smile.sol\":318:388  require(msg.sender == owner, \"Only the owner can perform this action\") */\n      0x04\n      dup3\n      add\n        /* \"#utility.yul\":1110:1131   */\n      mstore\n        /* \"#utility.yul\":1167:1169   */\n      0x26\n        /* \"#utility.yul\":1147:1165   */\n      0x24\n      dup3\n      add\n        /* \"#utility.yul\":1140:1170   */\n      mstore\n        /* \"#utility.yul\":1206:1240   */\n      0x4f6e6c7920746865206f776e65722063616e20706572666f726d207468697320\n        /* \"#utility.yul\":1186:1204   */\n      0x44\n      dup3\n      add\n        /* \"#utility.yul\":1179:1241   */\n      mstore\n      shl(0xd1, 0x30b1ba34b7b7)\n        /* \"#utility.yul\":1257:1275   */\n      0x64\n      dup3\n      add\n        /* \"#utility.yul\":1250:1286   */\n      mstore\n        /* \"#utility.yul\":1303:1322   */\n      0x84\n      add\n        /* \"smile.sol\":318:388  require(msg.sender == owner, \"Only the owner can perform this action\") */\n    tag_42:\n      mload(0x40)\n      dup1\n      swap2\n      sub\n      swap1\n      revert\n    tag_41:\n        /* \"smile.sol\":1144:1165  address(this).balance */\n      selfbalance\n        /* \"smile.sol\":1134:1140  amount */\n      dup2\n        /* \"smile.sol\":1134:1165  amount <= address(this).balance */\n      gt\n      iszero\n        /* \"smile.sol\":1112:1225  require(... */\n      tag_45\n      jumpi\n      mload(0x40)\n      shl(0xe5, 0x461bcd)\n      dup2\n      mstore\n        /* \"#utility.yul\":1535:1537   */\n      0x20\n        /* \"smile.sol\":1112:1225  require(... */\n      0x04\n      dup3\n      add\n        /* \"#utility.yul\":1517:1538   */\n      dup2\n      swap1\n      mstore\n        /* \"#utility.yul\":1554:1572   */\n      0x24\n      dup3\n      add\n        /* \"#utility.yul\":1547:1577   */\n      mstore\n        /* \"#utility.yul\":1613:1647   */\n      0x496e73756666696369656e742062616c616e636520746f207769746864726177\n        /* \"#utility.yul\":1593:1611   */\n      0x44\n      dup3\n      add\n        /* \"#utility.yul\":1586:1648   */\n      mstore\n        /* \"#utility.yul\":1665:1683   */\n      0x64\n      add\n        /* \"smile.sol\":1112:1225  require(... */\n      tag_42\n        /* \"#utility.yul\":1333:1689   */\n      jump\n        /* \"smile.sol\":1112:1225  require(... */\n    tag_45:\n        /* \"smile.sol\":1246:1251  owner */\n      0x00\n      dup1\n      sload\n        /* \"smile.sol\":1238:1269  payable(owner).transfer(amount) */\n      mload(0x40)\n      sub(shl(0xa0, 0x01), 0x01)\n        /* \"smile.sol\":1246:1251  owner */\n      swap1\n      swap2\n      and\n      swap2\n        /* \"smile.sol\":1238:1269  payable(owner).transfer(amount) */\n      dup4\n      iszero\n      0x08fc\n      mul\n      swap2\n        /* \"smile.sol\":1262:1268  amount */\n      dup5\n      swap2\n        /* \"smile.sol\":1238:1269  payable(owner).transfer(amount) */\n      dup2\n        /* \"smile.sol\":1246:1251  owner */\n      dup2\n        /* \"smile.sol\":1238:1269  payable(owner).transfer(amount) */\n      dup2\n        /* \"smile.sol\":1262:1268  amount */\n      dup6\n        /* \"smile.sol\":1246:1251  owner */\n      dup9\n        /* \"smile.sol\":1238:1269  payable(owner).transfer(amount) */\n      dup9\n      call\n      swap4\n      pop\n      pop\n      pop\n      pop\n      iszero\n      dup1\n      iszero\n      tag_49\n      jumpi\n      returndatasize\n      0x00\n      dup1\n      returndatacopy\n      revert(0x00, returndatasize)\n    tag_49:\n      pop\n        /* \"smile.sol\":1048:1277  function withdraw(uint256 amount) external onlyOwner {... */\n      pop\n      jump\t// out\n        /* \"smile.sol\":475:862  function creditUser(address user) external onlyOwner {... */\n    tag_37:\n        /* \"smile.sol\":340:345  owner */\n      and(sub(shl(0xa0, 0x01), 0x01), sload(0x00))\n        /* \"smile.sol\":326:336  msg.sender */\n      caller\n        /* \"smile.sol\":326:345  msg.sender == owner */\n      eq\n        /* \"smile.sol\":318:388  require(msg.sender == owner, \"Only the owner can perform this action\") */\n      tag_52\n      jumpi\n      mload(0x40)\n      shl(0xe5, 0x461bcd)\n      dup2\n      mstore\n        /* \"#utility.yul\":1128:1130   */\n      0x20\n        /* \"smile.sol\":318:388  require(msg.sender == owner, \"Only the owner can perform this action\") */\n      0x04\n      dup3\n      add\n        /* \"#utility.yul\":1110:1131   */\n      mstore\n        /* \"#utility.yul\":1167:1169   */\n      0x26\n        /* \"#utility.yul\":1147:1165   */\n      0x24\n      dup3\n      add\n        /* \"#utility.yul\":1140:1170   */\n      mstore\n        /* \"#utility.yul\":1206:1240   */\n      0x4f6e6c7920746865206f776e65722063616e20706572666f726d207468697320\n        /* \"#utility.yul\":1186:1204   */\n      0x44\n      dup3\n      add\n        /* \"#utility.yul\":1179:1241   */\n      mstore\n      shl(0xd1, 0x30b1ba34b7b7)\n        /* \"#utility.yul\":1257:1275   */\n      0x64\n      dup3\n      add\n        /* \"#utility.yul\":1250:1286   */\n      mstore\n        /* \"#utility.yul\":1303:1322   */\n      0x84\n      add\n        /* \"smile.sol\":318:388  require(msg.sender == owner, \"Only the owner can perform this action\") */\n      tag_42\n        /* \"#utility.yul\":926:1328   */\n      jump\n        /* \"smile.sol\":318:388  require(msg.sender == owner, \"Only the owner can perform this action\") */\n    tag_52:\n      sub(shl(0xa0, 0x01), 0x01)\n        /* \"smile.sol\":547:565  user != address(0) */\n      dup2\n      and\n        /* \"smile.sol\":539:585  require(user != address(0), \"Invalid address\") */\n      tag_55\n      jumpi\n      mload(0x40)\n      shl(0xe5, 0x461bcd)\n      dup2\n      mstore\n        /* \"#utility.yul\":1896:1898   */\n      0x20\n        /* \"smile.sol\":539:585  require(user != address(0), \"Invalid address\") */\n      0x04\n      dup3\n      add\n        /* \"#utility.yul\":1878:1899   */\n      mstore\n        /* \"#utility.yul\":1935:1937   */\n      0x0f\n        /* \"#utility.yul\":1915:1933   */\n      0x24\n      dup3\n      add\n        /* \"#utility.yul\":1908:1938   */\n      mstore\n        /* \"#utility.yul\":1974:1991   */\n      0x496e76616c696420616464726573730000000000000000000000000000000000\n        /* \"#utility.yul\":1954:1972   */\n      0x44\n      dup3\n      add\n        /* \"#utility.yul\":1947:1992   */\n      mstore\n        /* \"#utility.yul\":2009:2027   */\n      0x64\n      add\n        /* \"smile.sol\":539:585  require(user != address(0), \"Invalid address\") */\n      tag_42\n        /* \"#utility.yul\":1694:2033   */\n      jump\n        /* \"smile.sol\":539:585  require(user != address(0), \"Invalid address\") */\n    tag_55:\n        /* \"smile.sol\":621:631  0.01 ether */\n      0x2386f26fc10000\n        /* \"smile.sol\":666:687  address(this).balance */\n      selfbalance\n        /* \"smile.sol\":666:703  address(this).balance >= creditAmount */\n      dup2\n      gt\n      iszero\n        /* \"smile.sol\":644:761  require(... */\n      tag_58\n      jumpi\n      mload(0x40)\n      shl(0xe5, 0x461bcd)\n      dup2\n      mstore\n        /* \"#utility.yul\":2240:2242   */\n      0x20\n        /* \"smile.sol\":644:761  require(... */\n      0x04\n      dup3\n      add\n        /* \"#utility.yul\":2222:2243   */\n      mstore\n        /* \"#utility.yul\":2279:2281   */\n      0x1e\n        /* \"#utility.yul\":2259:2277   */\n      0x24\n      dup3\n      add\n        /* \"#utility.yul\":2252:2282   */\n      mstore\n        /* \"#utility.yul\":2318:2350   */\n      0x496e73756666696369656e742066756e647320696e20636f6e74726163740000\n        /* \"#utility.yul\":2298:2316   */\n      0x44\n      dup3\n      add\n        /* \"#utility.yul\":2291:2351   */\n      mstore\n        /* \"#utility.yul\":2368:2386   */\n      0x64\n      add\n        /* \"smile.sol\":644:761  require(... */\n      tag_42\n        /* \"#utility.yul\":2038:2392   */\n      jump\n        /* \"smile.sol\":644:761  require(... */\n    tag_58:\n        /* \"smile.sol\":774:810  payable(user).transfer(creditAmount) */\n      mload(0x40)\n      sub(shl(0xa0, 0x01), 0x01)\n        /* \"smile.sol\":774:796  payable(user).transfer */\n      dup4\n      and\n      swap1\n        /* \"smile.sol\":774:810  payable(user).transfer(creditAmount) */\n      dup3\n      iszero\n      0x08fc\n      mul\n      swap1\n        /* \"smile.sol\":797:809  creditAmount */\n      dup4\n      swap1\n        /* \"smile.sol\":774:810  payable(user).transfer(creditAmount) */\n      0x00\n      dup2\n      dup2\n      dup2\n        /* \"smile.sol\":797:809  creditAmount */\n      dup6\n        /* \"smile.sol\":774:796  payable(user).transfer */\n      dup9\n        /* \"smile.sol\":774:810  payable(user).transfer(creditAmount) */\n      dup9\n      call\n      swap4\n      pop\n      pop\n      pop\n      pop\n      iszero\n      dup1\n      iszero\n      tag_62\n      jumpi\n      returndatasize\n      0x00\n      dup1\n      returndatacopy\n      revert(0x00, returndatasize)\n    tag_62:\n      pop\n        /* \"smile.sol\":835:839  user */\n      dup2\n      sub(shl(0xa0, 0x01), 0x01)\n        /* \"smile.sol\":828:854  Credit(user, creditAmount) */\n      and\n      0x1bbf55d483639f8103dc4e035af71a4fbdb16c80be740fa3eef81198acefa094\n        /* \"smile.sol\":841:853  creditAmount */\n      dup3\n        /* \"smile.sol\":828:854  Credit(user, creditAmount) */\n      mload(0x40)\n      tag_63\n      swap2\n        /* \"#utility.yul\":160:185   */\n      dup2\n      mstore\n        /* \"#utility.yul\":148:150   */\n      0x20\n        /* \"#utility.yul\":133:151   */\n      add\n      swap1\n        /* \"#utility.yul\":14:191   */\n      jump\n        /* \"smile.sol\":828:854  Credit(user, creditAmount) */\n    tag_63:\n      mload(0x40)\n      dup1\n      swap2\n      sub\n      swap1\n      log2\n        /* \"smile.sol\":528:862  {... */\n      pop\n        /* \"smile.sol\":475:862  function creditUser(address user) external onlyOwner {... */\n      pop\n      jump\t// out\n        /* \"smile.sol\":870:1040  function donate() external payable {... */\n    tag_39:\n        /* \"smile.sol\":936:937  0 */\n      0x00\n        /* \"smile.sol\":924:933  msg.value */\n      callvalue\n        /* \"smile.sol\":924:937  msg.value > 0 */\n      gt\n        /* \"smile.sol\":916:983  require(msg.value > 0, \"Donation amount must be greater than zero\") */\n      tag_65\n      jumpi\n      mload(0x40)\n      shl(0xe5, 0x461bcd)\n      dup2\n      mstore\n        /* \"#utility.yul\":2599:2601   */\n      0x20\n        /* \"smile.sol\":916:983  require(msg.value > 0, \"Donation amount must be greater than zero\") */\n      0x04\n      dup3\n      add\n        /* \"#utility.yul\":2581:2602   */\n      mstore\n        /* \"#utility.yul\":2638:2640   */\n      0x29\n        /* \"#utility.yul\":2618:2636   */\n      0x24\n      dup3\n      add\n        /* \"#utility.yul\":2611:2641   */\n      mstore\n        /* \"#utility.yul\":2677:2711   */\n      0x446f6e6174696f6e20616d6f756e74206d757374206265206772656174657220\n        /* \"#utility.yul\":2657:2675   */\n      0x44\n      dup3\n      add\n        /* \"#utility.yul\":2650:2712   */\n      mstore\n        /* \"#utility.yul\":2748:2759   */\n      0x7468616e207a65726f0000000000000000000000000000000000000000000000\n        /* \"#utility.yul\":2728:2746   */\n      0x64\n      dup3\n      add\n        /* \"#utility.yul\":2721:2760   */\n      mstore\n        /* \"#utility.yul\":2777:2796   */\n      0x84\n      add\n        /* \"smile.sol\":916:983  require(msg.value > 0, \"Donation amount must be greater than zero\") */\n      tag_42\n        /* \"#utility.yul\":2397:2802   */\n      jump\n        /* \"smile.sol\":916:983  require(msg.value > 0, \"Donation amount must be greater than zero\") */\n    tag_65:\n        /* \"smile.sol\":1001:1032  Donation(msg.sender, msg.value) */\n      mload(0x40)\n        /* \"smile.sol\":1022:1031  msg.value */\n      callvalue\n        /* \"#utility.yul\":160:185   */\n      dup2\n      mstore\n        /* \"smile.sol\":1010:1020  msg.sender */\n      caller\n      swap1\n        /* \"smile.sol\":1001:1032  Donation(msg.sender, msg.value) */\n      0x5d8bc849764969eb1bcc6d0a2f55999d0167c1ccec240a4f39cf664ca9c4148e\n      swap1\n        /* \"#utility.yul\":148:150   */\n      0x20\n        /* \"#utility.yul\":133:151   */\n      add\n        /* \"smile.sol\":1001:1032  Donation(msg.sender, msg.value) */\n      mload(0x40)\n      dup1\n      swap2\n      sub\n      swap1\n      log2\n        /* \"smile.sol\":870:1040  function donate() external payable {... */\n      jump\t// out\n        /* \"#utility.yul\":196:505   */\n    tag_17:\n        /* \"#utility.yul\":255:261   */\n      0x00\n        /* \"#utility.yul\":308:310   */\n      0x20\n        /* \"#utility.yul\":296:305   */\n      dup3\n        /* \"#utility.yul\":287:294   */\n      dup5\n        /* \"#utility.yul\":283:306   */\n      sub\n        /* \"#utility.yul\":279:311   */\n      slt\n        /* \"#utility.yul\":276:328   */\n      iszero\n      tag_72\n      jumpi\n        /* \"#utility.yul\":324:325   */\n      0x00\n        /* \"#utility.yul\":321:322   */\n      dup1\n        /* \"#utility.yul\":314:326   */\n      revert\n        /* \"#utility.yul\":276:328   */\n    tag_72:\n        /* \"#utility.yul\":363:372   */\n      dup2\n        /* \"#utility.yul\":350:373   */\n      calldataload\n      sub(shl(0xa0, 0x01), 0x01)\n        /* \"#utility.yul\":406:411   */\n      dup2\n        /* \"#utility.yul\":402:456   */\n      and\n        /* \"#utility.yul\":395:400   */\n      dup2\n        /* \"#utility.yul\":392:457   */\n      eq\n        /* \"#utility.yul\":382:475   */\n      tag_73\n      jumpi\n        /* \"#utility.yul\":471:472   */\n      0x00\n        /* \"#utility.yul\":468:469   */\n      dup1\n        /* \"#utility.yul\":461:473   */\n      revert\n        /* \"#utility.yul\":382:475   */\n    tag_73:\n        /* \"#utility.yul\":494:499   */\n      swap4\n        /* \"#utility.yul\":196:505   */\n      swap3\n      pop\n      pop\n      pop\n      jump\t// out\n        /* \"#utility.yul\":510:690   */\n    tag_23:\n        /* \"#utility.yul\":569:575   */\n      0x00\n        /* \"#utility.yul\":622:624   */\n      0x20\n        /* \"#utility.yul\":610:619   */\n      dup3\n        /* \"#utility.yul\":601:608   */\n      dup5\n        /* \"#utility.yul\":597:620   */\n      sub\n        /* \"#utility.yul\":593:625   */\n      slt\n        /* \"#utility.yul\":590:642   */\n      iszero\n      tag_75\n      jumpi\n        /* \"#utility.yul\":638:639   */\n      0x00\n        /* \"#utility.yul\":635:636   */\n      dup1\n        /* \"#utility.yul\":628:640   */\n      revert\n        /* \"#utility.yul\":590:642   */\n    tag_75:\n      pop\n        /* \"#utility.yul\":661:684   */\n      calldataload\n      swap2\n        /* \"#utility.yul\":510:690   */\n      swap1\n      pop\n      jump\t// out\n\n    auxdata: 0xa264697066735822122051a874cdb9c96307c791e45d7f92eac372ee4e0aa9d770691508f4749db0935764736f6c63430008190033\n}\n",
    "bytecode": {
      "linkReferences": {},
      "object": "6080604052348015600e575f80fd5b505f80546001600160a01b031916331790556105228061002d5f395ff3fe608060405260043610610066575f3560e01c8063c71daccb11610041578063c71daccb1461013b578063e89e3ac71461014d578063ed88c68e1461016c575f80fd5b806327e235e3146100a65780632e1a7d4d146100e45780638da5cb5b14610105575f80fd5b366100a25760405134815233907f5d8bc849764969eb1bcc6d0a2f55999d0167c1ccec240a4f39cf664ca9c4148e9060200160405180910390a2005b5f80fd5b3480156100b1575f80fd5b506100d16100c03660046104a8565b60016020525f908152604090205481565b6040519081526020015b60405180910390f35b3480156100ef575f80fd5b506101036100fe3660046104d5565b610174565b005b348015610110575f80fd5b505f54610123906001600160a01b031681565b6040516001600160a01b0390911681526020016100db565b348015610146575f80fd5b50476100d1565b348015610158575f80fd5b506101036101673660046104a8565b61026b565b6101036103fc565b5f546001600160a01b031633146101e15760405162461bcd60e51b815260206004820152602660248201527f4f6e6c7920746865206f776e65722063616e20706572666f726d20746869732060448201526530b1ba34b7b760d11b60648201526084015b60405180910390fd5b478111156102315760405162461bcd60e51b815260206004820181905260248201527f496e73756666696369656e742062616c616e636520746f20776974686472617760448201526064016101d8565b5f80546040516001600160a01b039091169183156108fc02918491818181858888f19350505050158015610267573d5f803e3d5ffd5b5050565b5f546001600160a01b031633146102d35760405162461bcd60e51b815260206004820152602660248201527f4f6e6c7920746865206f776e65722063616e20706572666f726d20746869732060448201526530b1ba34b7b760d11b60648201526084016101d8565b6001600160a01b0381166103295760405162461bcd60e51b815260206004820152600f60248201527f496e76616c69642061646472657373000000000000000000000000000000000060448201526064016101d8565b662386f26fc10000478111156103815760405162461bcd60e51b815260206004820152601e60248201527f496e73756666696369656e742066756e647320696e20636f6e7472616374000060448201526064016101d8565b6040516001600160a01b0383169082156108fc029083905f818181858888f193505050501580156103b4573d5f803e3d5ffd5b50816001600160a01b03167f1bbf55d483639f8103dc4e035af71a4fbdb16c80be740fa3eef81198acefa094826040516103f091815260200190565b60405180910390a25050565b5f34116104715760405162461bcd60e51b815260206004820152602960248201527f446f6e6174696f6e20616d6f756e74206d75737420626520677265617465722060448201527f7468616e207a65726f000000000000000000000000000000000000000000000060648201526084016101d8565b60405134815233907f5d8bc849764969eb1bcc6d0a2f55999d0167c1ccec240a4f39cf664ca9c4148e9060200160405180910390a2565b5f602082840312156104b8575f80fd5b81356001600160a01b03811681146104ce575f80fd5b9392505050565b5f602082840312156104e5575f80fd5b503591905056fea264697066735822122051a874cdb9c96307c791e45d7f92eac372ee4e0aa9d770691508f4749db0935764736f6c63430008190033",
      "opcodes": "PUSH1 0x80 PUSH1 0x40 MSTORE CALLVALUE DUP1 ISZERO PUSH1 0xE JUMPI PUSH0 DUP1 REVERT JUMPDEST POP PUSH0 DUP1 SLOAD PUSH1 0x1 PUSH1 0x1 PUSH1 0xA0 SHL SUB NOT AND CALLER OR SWAP1 SSTORE PUSH2 0x522 DUP1 PUSH2 0x2D PUSH0 CODECOPY PUSH0 RETURN INVALID PUSH1 0x80 PUSH1 0x40 MSTORE PUSH1 0x4 CALLDATASIZE LT PUSH2 0x66 JUMPI PUSH0 CALLDATALOAD PUSH1 0xE0 SHR DUP1 PUSH4 0xC71DACCB GT PUSH2 0x41 JUMPI DUP1 PUSH4 0xC71DACCB EQ PUSH2 0x13B JUMPI DUP1 PUSH4 0xE89E3AC7 EQ PUSH2 0x14D JUMPI DUP1 PUSH4 0xED88C68E EQ PUSH2 0x16C JUMPI PUSH0 DUP1 REVERT JUMPDEST DUP1 PUSH4 0x27E235E3 EQ PUSH2 0xA6 JUMPI DUP1 PUSH4 0x2E1A7D4D EQ PUSH2 0xE4 JUMPI DUP1 PUSH4 0x8DA5CB5B EQ PUSH2 0x105 JUMPI PUSH0 DUP1 REVERT JUMPDEST CALLDATASIZE PUSH2 0xA2 JUMPI PUSH1 0x40 MLOAD CALLVALUE DUP2 MSTORE CALLER SWAP1 PUSH32 0x5D8BC849764969EB1BCC6D0A2F55999D0167C1CCEC240A4F39CF664CA9C4148E SWAP1 PUSH1 0x20 ADD PUSH1 0x40 MLOAD DUP1 SWAP2 SUB SWAP1 LOG2 STOP JUMPDEST PUSH0 DUP1 REVERT JUMPDEST CALLVALUE DUP1 ISZERO PUSH2 0xB1 JUMPI PUSH0 DUP1 REVERT JUMPDEST POP PUSH2 0xD1 PUSH2 0xC0 CALLDATASIZE PUSH1 0x4 PUSH2 0x4A8 JUMP JUMPDEST PUSH1 0x1 PUSH1 0x20 MSTORE PUSH0 SWAP1 DUP2 MSTORE PUSH1 0x40 SWAP1 KECCAK256 SLOAD DUP2 JUMP JUMPDEST PUSH1 0x40 MLOAD SWAP1 DUP2 MSTORE PUSH1 0x20 ADD JUMPDEST PUSH1 0x40 MLOAD DUP1 SWAP2 SUB SWAP1 RETURN JUMPDEST CALLVALUE DUP1 ISZERO PUSH2 0xEF JUMPI PUSH0 DUP1 REVERT JUMPDEST POP PUSH2 0x103 PUSH2 0xFE CALLDATASIZE PUSH1 0x4 PUSH2 0x4D5 JUMP JUMPDEST PUSH2 0x174 JUMP JUMPDEST STOP JUMPDEST CALLVALUE DUP1 ISZERO PUSH2 0x110 JUMPI PUSH0 DUP1 REVERT JUMPDEST POP PUSH0 SLOAD PUSH2 0x123 SWAP1 PUSH1 0x1 PUSH1 0x1 PUSH1 0xA0 SHL SUB AND DUP2 JUMP JUMPDEST PUSH1 0x40 MLOAD PUSH1 0x1 PUSH1 0x1 PUSH1 0xA0 SHL SUB SWAP1 SWAP2 AND DUP2 MSTORE PUSH1 0x20 ADD PUSH2 0xDB JUMP JUMPDEST CALLVALUE DUP1 ISZERO PUSH2 0x146 JUMPI PUSH0 DUP1 REVERT JUMPDEST POP SELFBALANCE PUSH2 0xD1 JUMP JUMPDEST CALLVALUE DUP1 ISZERO PUSH2 0x158 JUMPI PUSH0 DUP1 REVERT JUMPDEST POP PUSH2 0x103 PUSH2 0x167 CALLDATASIZE PUSH1 0x4 PUSH2 0x4A8 JUMP JUMPDEST PUSH2 0x26B JUMP JUMPDEST PUSH2 0x103 PUSH2 0x3FC JUMP JUMPDEST PUSH0 SLOAD PUSH1 0x1 PUSH1 0x1 PUSH1 0xA0 SHL SUB AND CALLER EQ PUSH2 0x1E1 JUMPI PUSH1 0x40 MLOAD PUSH3 0x461BCD PUSH1 0xE5 SHL DUP2 MSTORE PUSH1 0x20 PUSH1 0x4 DUP3 ADD MSTORE PUSH1 0x26 PUSH1 0x24 DUP3 ADD MSTORE PUSH32 0x4F6E6C7920746865206F776E65722063616E20706572666F726D207468697320 PUSH1 0x44 DUP3 ADD MSTORE PUSH6 0x30B1BA34B7B7 PUSH1 0xD1 SHL PUSH1 0x64 DUP3 ADD MSTORE PUSH1 0x84 ADD JUMPDEST PUSH1 0x40 MLOAD DUP1 SWAP2 SUB SWAP1 REVERT JUMPDEST SELFBALANCE DUP2 GT ISZERO PUSH2 0x231 JUMPI PUSH1 0x40 MLOAD PUSH3 0x461BCD PUSH1 0xE5 SHL DUP2 MSTORE PUSH1 0x20 PUSH1 0x4 DUP3 ADD DUP2 SWAP1 MSTORE PUSH1 0x24 DUP3 ADD MSTORE PUSH32 0x496E73756666696369656E742062616C616E636520746F207769746864726177 PUSH1 0x44 DUP3 ADD MSTORE PUSH1 0x64 ADD PUSH2 0x1D8 JUMP JUMPDEST PUSH0 DUP1 SLOAD PUSH1 0x40 MLOAD PUSH1 0x1 PUSH1 0x1 PUSH1 0xA0 SHL SUB SWAP1 SWAP2 AND SWAP2 DUP4 ISZERO PUSH2 0x8FC MUL SWAP2 DUP5 SWAP2 DUP2 DUP2 DUP2 DUP6 DUP9 DUP9 CALL SWAP4 POP POP POP POP ISZERO DUP1 ISZERO PUSH2 0x267 JUMPI RETURNDATASIZE PUSH0 DUP1 RETURNDATACOPY RETURNDATASIZE PUSH0 REVERT JUMPDEST POP POP JUMP JUMPDEST PUSH0 SLOAD PUSH1 0x1 PUSH1 0x1 PUSH1 0xA0 SHL SUB AND CALLER EQ PUSH2 0x2D3 JUMPI PUSH1 0x40 MLOAD PUSH3 0x461BCD PUSH1 0xE5 SHL DUP2 MSTORE PUSH1 0x20 PUSH1 0x4 DUP3 ADD MSTORE PUSH1 0x26 PUSH1 0x24 DUP3 ADD MSTORE PUSH32 0x4F6E6C7920746865206F776E65722063616E20706572666F726D207468697320 PUSH1 0x44 DUP3 ADD MSTORE PUSH6 0x30B1BA34B7B7 PUSH1 0xD1 SHL PUSH1 0x64 DUP3 ADD MSTORE PUSH1 0x84 ADD PUSH2 0x1D8 JUMP JUMPDEST PUSH1 0x1 PUSH1 0x1 PUSH1 0xA0 SHL SUB DUP2 AND PUSH2 0x329 JUMPI PUSH1 0x40 MLOAD PUSH3 0x461BCD PUSH1 0xE5 SHL DUP2 MSTORE PUSH1 0x20 PUSH1 0x4 DUP3 ADD MSTORE PUSH1 0xF PUSH1 0x24 DUP3 ADD MSTORE PUSH32 0x496E76616C696420616464726573730000000000000000000000000000000000 PUSH1 0x44 DUP3 ADD MSTORE PUSH1 0x64 ADD PUSH2 0x1D8 JUMP JUMPDEST PUSH7 0x2386F26FC10000 SELFBALANCE DUP2 GT ISZERO PUSH2 0x381 JUMPI PUSH1 0x40 MLOAD PUSH3 0x461BCD PUSH1 0xE5 SHL DUP2 MSTORE PUSH1 0x20 PUSH1 0x4 DUP3 ADD MSTORE PUSH1 0x1E PUSH1 0x24 DUP3 ADD MSTORE PUSH32 0x496E73756666696369656E742066756E647320696E20636F6E74726163740000 PUSH1 0x44 DUP3 ADD MSTORE PUSH1 0x64 ADD PUSH2 0x1D8 JUMP JUMPDEST PUSH1 0x40 MLOAD PUSH1 0x1 PUSH1 0x1 PUSH1 0xA0 SHL SUB DUP4 AND SWAP1 DUP3 ISZERO PUSH2 0x8FC MUL SWAP1 DUP4 SWAP1 PUSH0 DUP2 DUP2 DUP2 DUP6 DUP9 DUP9 CALL SWAP4 POP POP POP POP ISZERO DUP1 ISZERO PUSH2 0x3B4 JUMPI RETURNDATASIZE PUSH0 DUP1 RETURNDATACOPY RETURNDATASIZE PUSH0 REVERT JUMPDEST POP DUP2 PUSH1 0x1 PUSH1 0x1 PUSH1 0xA0 SHL SUB AND PUSH32 0x1BBF55D483639F8103DC4E035AF71A4FBDB16C80BE740FA3EEF81198ACEFA094 DUP3 PUSH1 0x40 MLOAD PUSH2 0x3F0 SWAP2 DUP2 MSTORE PUSH1 0x20 ADD SWAP1 JUMP JUMPDEST PUSH1 0x40 MLOAD DUP1 SWAP2 SUB SWAP1 LOG2 POP POP JUMP JUMPDEST PUSH0 CALLVALUE GT PUSH2 0x471 JUMPI PUSH1 0x40 MLOAD PUSH3 0x461BCD PUSH1 0xE5 SHL DUP2 MSTORE PUSH1 0x20 PUSH1 0x4 DUP3 ADD MSTORE PUSH1 0x29 PUSH1 0x24 DUP3 ADD MSTORE PUSH32 0x446F6E6174696F6E20616D6F756E74206D757374206265206772656174657220 PUSH1 0x44 DUP3 ADD MSTORE PUSH32 0x7468616E207A65726F0000000000000000000000000000000000000000000000 PUSH1 0x64 DUP3 ADD MSTORE PUSH1 0x84 ADD PUSH2 0x1D8 JUMP JUMPDEST PUSH1 0x40 MLOAD CALLVALUE DUP2 MSTORE CALLER SWAP1 PUSH32 0x5D8BC849764969EB1BCC6D0A2F55999D0167C1CCEC240A4F39CF664CA9C4148E SWAP1 PUSH1 0x20 ADD PUSH1 0x40 MLOAD DUP1 SWAP2 SUB SWAP1 LOG2 JUMP JUMPDEST PUSH0 PUSH1 0x20 DUP3 DUP5 SUB SLT ISZERO PUSH2 0x4B8 JUMPI PUSH0 DUP1 REVERT JUMPDEST DUP2 CALLDATALOAD PUSH1 0x1 PUSH1 0x1 PUSH1 0xA0 SHL SUB DUP2 AND DUP2 EQ PUSH2 0x4CE JUMPI PUSH0 DUP1 REVERT JUMPDEST SWAP4 SWAP3 POP POP POP JUMP JUMPDEST PUSH0 PUSH1 0x20 DUP3 DUP5 SUB SLT ISZERO PUSH2 0x4E5 JUMPI PUSH0 DUP1 REVERT JUMPDEST POP CALLDATALOAD SWAP2 SWAP1 POP JUMP INVALID LOG2 PUSH5 0x6970667358 0x22 SLT KECCAK256 MLOAD 0xA8 PUSH21 0xCDB9C96307C791E45D7F92EAC372EE4E0AA9D77069 ISZERO ADDMOD DELEGATECALL PUSH21 0x9DB0935764736F6C63430008190033000000000000 "
    },
    "gasEstimates": {
      "creation": {
        "codeDepositCost": "262800",
        "executionCost": "24538",
        "totalCost": "287338"
      },
      "external": {
        "balances(address)": "2471",
        "checkBalance()": "182",
        "creditUser(address)": "infinite",
        "donate()": "1620",
        "owner()": "2380",
        "withdraw(uint256)": "infinite"
      }
    },
    "methodIdentifiers": {
      "balances(address)": "27e235e3",
      "checkBalance()": "c71daccb",
      "creditUser(address)": "e89e3ac7",
      "donate()": "ed88c68e",
      "owner()": "8da5cb5b",
      "withdraw(uint256)": "2e1a7d4d"
    }
  },
  "storageLayout": {
    "storage": [
      {
        "astId": 3,
        "contract": "smile.sol:SmileCredit",
        "label": "owner",
        "offset": 0,
        "slot": "0",
        "type": "t_address"
      },
      {
        "astId": 7,
        "contract": "smile.sol:SmileCredit",
        "label": "balances",
        "offset": 0,
        "slot": "1",
        "type": "t_mapping(t_address,t_uint256)"
      }
    ],
    "types": {
      "t_address": {
        "encoding": "inplace",
        "label": "address",
        "numberOfBytes": "20"
      },
      "t_mapping(t_address,t_uint256)": {
        "encoding": "mapping",
        "key": "t_address",
        "label": "mapping(address => uint256)",
        "numberOfBytes": "32",
        "value": "t_uint256"
      },
      "t_uint256": {
        "encoding": "inplace",
        "label": "uint256",
        "numberOfBytes": "32"
      }
    }
  },
  "userdoc": {
    "kind": "user",
    "methods": {},
    "version": 1
  }
}