{
  "abi": [
    {
      "inputs": [],
      "stateMutability": "nonpayable",
      "type": "constructor"
    },
    {
      "anonymous": false,
      "inputs": [
        {
          "indexed": true,
          "internalType": "address",
          "name": "user",
          "type": "address"
        },
        {
          "indexed": false,
          "internalType": "uint256",
          "name": "amount",
          "type": "uint256"
        }
      ],
      "name": "Credit",
      "type": "event"
    },
    {
      "anonymous": false,
      "inputs": [
        {
          "indexed": true,
          "internalType": "address",
          "name": "donor",
          "type": "address"
        },
        {
          "indexed": false,
          "internalType": "uint256",
          "name": "amount",
          "type": "uint256"
        }
      ],
      "name": "Donation",
      "type": "event"
    },
    {
      "inputs": [
        {
          "internalType": "address",
          "name": "",
          "type": "address"
        }
      ],
      "name": "balances",
      "outputs": [
        {
          "internalType": "uint256",
          "name": "",
          "type": "uint256"
        }
      ],
      "stateMutability": "view",
      "type": "function"
    },
    {
      "inputs": [],
      "name": "checkBalance",
      "outputs": [
        {
          "internalType": "uint256",
          "name": "",
          "type": "uint256"
        }
      ],
      "stateMutability": "view",
      "type": "function"
    },
    {
      "inputs": [
        {
          "internalType": "address",
          "name": "user",
          "type": "address"
        }
      ],
      "name": "creditUser",
      "outputs": [],
      "stateMutability": "nonpayable",
      "type": "function"
    },
    {
      "inputs": [],
      "name": "donate",
      "outputs": [],
      "stateMutability": "payable",
      "type": "function"
    },
    {
      "inputs": [],
      "name": "owner",
      "outputs": [
        {
          "internalType": "address",
          "name": "",
          "type": "address"
        }
      ],
      "stateMutability": "view",
      "type": "function"
    },
    {
      "inputs": [
        {
          "internalType": "uint256",
          "name": "amount",
          "type": "uint256"
        }
      ],
      "name": "withdraw",
      "outputs": [],
      "stateMutability": "nonpayable",
      "type": "function"
    },
    {
      "stateMutability": "payable",
      "type": "receive"
    }
  ],
  "devdoc": {
    "kind": "dev",
    "methods": {},
    "version": 1
  },
  "evm": {
    "assembly": "    /* \"smile.sol\":60:1475  contract SmileCredit {... */\n  mstore(0x40, 0x80)\n    /* \"smile.sol\":416:467  constructor() {... */\n  callvalue\n  dup1\n  iszero\n  tag_1\n  jumpi\n  0x00\n  dup1\n  revert\ntag_1:\n  pop\n    /* \"smile.sol\":441:446  owner */\n  0x00\n    /* \"smile.sol\":441:459  owner = msg.sender */\n  dup1\n  sload\n  not(sub(shl(0xa0, 0x01), 0x01))\n  and\n    /* \"smile.sol\":449:459  msg.sender */\n  caller\n    /* \"smile.sol\":441:459  owner = msg.sender */\n  or\n  swap1\n  sstore\n    /* \"smile.sol\":60:1475  contract SmileCredit {... */\n  dataSize(sub_0)\n  dup1\n  dataOffset(sub_0)\n  0x00\n  codecopy\n  0x00\n  return\nstop\n\nsub_0: assembly {\n        /* \"smile.sol\":60:1475  contract SmileCredit {... */\n      mstore(0x40, 0x80)\n      jumpi(tag_1, lt(calldatasize, 0x04))\n      shr(0xe0, calldataload(0x00))\n      dup1\n      0xc71daccb\n      gt\n      tag_9\n      jumpi\n      dup1\n      0xc71daccb\n      eq\n      tag_6\n      jumpi\n      dup1\n      0xe89e3ac7\n      eq\n      tag_7\n      jumpi\n      dup1\n      0xed88c68e\n      eq\n      tag_8\n      jumpi\n      0x00\n      dup1\n      revert\n    tag_9:\n      dup1\n      0x27e235e3\n      eq\n      tag_3\n      jumpi\n      dup1\n      0x2e1a7d4d\n      eq\n      tag_4\n      jumpi\n      dup1\n      0x8da5cb5b\n      eq\n      tag_5\n      jumpi\n      0x00\n      dup1\n      revert\n    tag_1:\n      jumpi(tag_2, calldatasize)\n        /* \"smile.sol\":1433:1464  Donation(msg.sender, msg.value) */\n      mload(0x40)\n        /* \"smile.sol\":1454:1463  msg.value */\n      callvalue\n        /* \"#utility.yul\":160:185   */\n      dup2\n      mstore\n        /* \"smile.sol\":1442:1452  msg.sender */\n      caller\n      swap1\n        /* \"smile.sol\":1433:1464  Donation(msg.sender, msg.value) */\n      0x5d8bc849764969eb1bcc6d0a2f55999d0167c1ccec240a4f39cf664ca9c4148e\n      swap1\n        /* \"#utility.yul\":148:150   */\n      0x20\n        /* \"#utility.yul\":133:151   */\n      add\n        /* \"smile.sol\":1433:1464  Donation(msg.sender, msg.value) */\n      mload(0x40)\n      dup1\n      swap2\n      sub\n      swap1\n      log2\n        /* \"smile.sol\":60:1475  contract SmileCredit {... */\n      stop\n    tag_2:\n      0x00\n      dup1\n      revert\n        /* \"smile.sol\":115:158  mapping(address => uint256) public balances */\n    tag_3:\n      callvalue\n      dup1\n      iszero\n      tag_14\n      jumpi\n      0x00\n      dup1\n      revert\n    tag_14:\n      pop\n      tag_15\n      tag_16\n      calldatasize\n      0x04\n      tag_17\n      jump\t// in\n    tag_16:\n      mstore(0x20, 0x01)\n      0x00\n      swap1\n      dup2\n      mstore\n      0x40\n      swap1\n      keccak256\n      sload\n      dup2\n      jump\n    tag_15:\n      mload(0x40)\n        /* \"#utility.yul\":160:185   */\n      swap1\n      dup2\n      mstore\n        /* \"#utility.yul\":148:150   */\n      0x20\n        /* \"#utility.yul\":133:151   */\n      add\n        /* \"smile.sol\":115:158  mapping(address => uint256) public balances */\n    tag_19:\n      mload(0x40)\n      dup1\n      swap2\n      sub\n      swap1\n      return\n        /* \"smile.sol\":1042:1271  function withdraw(uint256 amount) external onlyOwner {... */\n    tag_4:\n      callvalue\n      dup1\n      iszero\n      tag_20\n      jumpi\n      0x00\n      dup1\n      revert\n    tag_20:\n      pop\n      tag_21\n      tag_22\n      calldatasize\n      0x04\n      tag_23\n      jump\t// in\n    tag_22:\n      tag_24\n      jump\t// in\n    tag_21:\n      stop\n        /* \"smile.sol\":88:108  address public owner */\n    tag_5:\n      callvalue\n      dup1\n      iszero\n      tag_25\n      jumpi\n      0x00\n      dup1\n      revert\n    tag_25:\n      pop\n      sload(0x00)\n      tag_26\n      swap1\n      sub(shl(0xa0, 0x01), 0x01)\n      and\n      dup2\n      jump\n    tag_26:\n      mload(0x40)\n      sub(shl(0xa0, 0x01), 0x01)\n        /* \"#utility.yul\":859:914   */\n      swap1\n      swap2\n      and\n        /* \"#utility.yul\":841:915   */\n      dup2\n      mstore\n        /* \"#utility.yul\":829:831   */\n      0x20\n        /* \"#utility.yul\":814:832   */\n      add\n        /* \"smile.sol\":88:108  address public owner */\n      tag_19\n        /* \"#utility.yul\":695:921   */\n      jump\n        /* \"smile.sol\":1279:1382  function checkBalance() external view returns (uint256) {... */\n    tag_6:\n      callvalue\n      dup1\n      iszero\n      tag_30\n      jumpi\n      0x00\n      dup1\n      revert\n    tag_30:\n      pop\n        /* \"smile.sol\":1353:1374  address(this).balance */\n      selfbalance\n        /* \"smile.sol\":1279:1382  function checkBalance() external view returns (uint256) {... */\n      jump(tag_15)\n        /* \"smile.sol\":475:856  function creditUser(address user) external onlyOwner {... */\n    tag_7:\n      callvalue\n      dup1\n      iszero\n      tag_34\n      jumpi\n      0x00\n      dup1\n      revert\n    tag_34:\n      pop\n      tag_21\n      tag_36\n      calldatasize\n      0x04\n      tag_17\n      jump\t// in\n    tag_36:\n      tag_37\n      jump\t// in\n        /* \"smile.sol\":864:1034  function donate() external payable {... */\n    tag_8:\n      tag_21\n      tag_39\n      jump\t// in\n        /* \"smile.sol\":1042:1271  function withdraw(uint256 amount) external onlyOwner {... */\n    tag_24:\n        /* \"smile.sol\":340:345  owner */\n      and(sub(shl(0xa0, 0x01), 0x01), sload(0x00))\n        /* \"smile.sol\":326:336  msg.sender */\n      caller\n        /* \"smile.sol\":326:345  msg.sender == owner */\n      eq\n        /* \"smile.sol\":318:388  require(msg.sender == owner, \"Only the owner can perform this action\") */\n      tag_41\n      jumpi\n      mload(0x40)\n      shl(0xe5, 0x461bcd)\n      dup2\n      mstore\n        /* \"#utility.yul\":1128:1130   */\n      0x20\n        /* \"smile.sol\":318:388  require(msg.sender == owner, \"Only the owner can perform this action\") */\n      0x04\n      dup3\n      add\n        /* \"#utility.yul\":1110:1131   */\n      mstore\n        /* \"#utility.yul\":1167:1169   */\n      0x26\n        /* \"#utility.yul\":1147:1165   */\n      0x24\n      dup3\n      add\n        /* \"#utility.yul\":1140:1170   */\n      mstore\n        /* \"#utility.yul\":1206:1240   */\n      0x4f6e6c7920746865206f776e65722063616e20706572666f726d207468697320\n        /* \"#utility.yul\":1186:1204   */\n      0x44\n      dup3\n      add\n        /* \"#utility.yul\":1179:1241   */\n      mstore\n      shl(0xd1, 0x30b1ba34b7b7)\n        /* \"#utility.yul\":1257:1275   */\n      0x64\n      dup3\n      add\n        /* \"#utility.yul\":1250:1286   */\n      mstore\n        /* \"#utility.yul\":1303:1322   */\n      0x84\n      add\n        /* \"smile.sol\":318:388  require(msg.sender == owner, \"Only the owner can perform this action\") */\n    tag_42:\n      mload(0x40)\n      dup1\n      swap2\n      sub\n      swap1\n      revert\n    tag_41:\n        /* \"smile.sol\":1138:1159  address(this).balance */\n      selfbalance\n        /* \"smile.sol\":1128:1134  amount */\n      dup2\n        /* \"smile.sol\":1128:1159  amount <= address(this).balance */\n      gt\n      iszero\n        /* \"smile.sol\":1106:1219  require(... */\n      tag_45\n      jumpi\n      mload(0x40)\n      shl(0xe5, 0x461bcd)\n      dup2\n      mstore\n        /* \"#utility.yul\":1535:1537   */\n      0x20\n        /* \"smile.sol\":1106:1219  require(... */\n      0x04\n      dup3\n      add\n        /* \"#utility.yul\":1517:1538   */\n      dup2\n      swap1\n      mstore\n        /* \"#utility.yul\":1554:1572   */\n      0x24\n      dup3\n      add\n        /* \"#utility.yul\":1547:1577   */\n      mstore\n        /* \"#utility.yul\":1613:1647   */\n      0x496e73756666696369656e742062616c616e636520746f207769746864726177\n        /* \"#utility.yul\":1593:1611   */\n      0x44\n      dup3\n      add\n        /* \"#utility.yul\":1586:1648   */\n      mstore\n        /* \"#utility.yul\":1665:1683   */\n      0x64\n      add\n        /* \"smile.sol\":1106:1219  require(... */\n      tag_42\n        /* \"#utility.yul\":1333:1689   */\n      jump\n        /* \"smile.sol\":1106:1219  require(... */\n    tag_45:\n        /* \"smile.sol\":1240:1245  owner */\n      0x00\n      dup1\n      sload\n        /* \"smile.sol\":1232:1263  payable(owner).transfer(amount) */\n      mload(0x40)\n      sub(shl(0xa0, 0x01), 0x01)\n        /* \"smile.sol\":1240:1245  owner */\n      swap1\n      swap2\n      and\n      swap2\n        /* \"smile.sol\":1232:1263  payable(owner).transfer(amount) */\n      dup4\n      iszero\n      0x08fc\n      mul\n      swap2\n        /* \"smile.sol\":1256:1262  amount */\n      dup5\n      swap2\n        /* \"smile.sol\":1232:1263  payable(owner).transfer(amount) */\n      dup2\n        /* \"smile.sol\":1240:1245  owner */\n      dup2\n        /* \"smile.sol\":1232:1263  payable(owner).transfer(amount) */\n      dup2\n        /* \"smile.sol\":1256:1262  amount */\n      dup6\n        /* \"smile.sol\":1240:1245  owner */\n      dup9\n        /* \"smile.sol\":1232:1263  payable(owner).transfer(amount) */\n      dup9\n      call\n      swap4\n      pop\n      pop\n      pop\n      pop\n      iszero\n      dup1\n      iszero\n      tag_49\n      jumpi\n      returndatasize\n      0x00\n      dup1\n      returndatacopy\n      revert(0x00, returndatasize)\n    tag_49:\n      pop\n        /* \"smile.sol\":1042:1271  function withdraw(uint256 amount) external onlyOwner {... */\n      pop\n      jump\t// out\n        /* \"smile.sol\":475:856  function creditUser(address user) external onlyOwner {... */\n    tag_37:\n        /* \"smile.sol\":340:345  owner */\n      and(sub(shl(0xa0, 0x01), 0x01), sload(0x00))\n        /* \"smile.sol\":326:336  msg.sender */\n      caller\n        /* \"smile.sol\":326:345  msg.sender == owner */\n      eq\n        /* \"smile.sol\":318:388  require(msg.sender == owner, \"Only the owner can perform this action\") */\n      tag_52\n      jumpi\n      mload(0x40)\n      shl(0xe5, 0x461bcd)\n      dup2\n      mstore\n        /* \"#utility.yul\":1128:1130   */\n      0x20\n        /* \"smile.sol\":318:388  require(msg.sender == owner, \"Only the owner can perform this action\") */\n      0x04\n      dup3\n      add\n        /* \"#utility.yul\":1110:1131   */\n      mstore\n        /* \"#utility.yul\":1167:1169   */\n      0x26\n        /* \"#utility.yul\":1147:1165   */\n      0x24\n      dup3\n      add\n        /* \"#utility.yul\":1140:1170   */\n      mstore\n        /* \"#utility.yul\":1206:1240   */\n      0x4f6e6c7920746865206f776e65722063616e20706572666f726d207468697320\n        /* \"#utility.yul\":1186:1204   */\n      0x44\n      dup3\n      add\n        /* \"#utility.yul\":1179:1241   */\n      mstore\n      shl(0xd1, 0x30b1ba34b7b7)\n        /* \"#utility.yul\":1257:1275   */\n      0x64\n      dup3\n      add\n        /* \"#utility.yul\":1250:1286   */\n      mstore\n        /* \"#utility.yul\":1303:1322   */\n      0x84\n      add\n        /* \"smile.sol\":318:388  require(msg.sender == owner, \"Only the owner can perform this action\") */\n      tag_42\n        /* \"#utility.yul\":926:1328   */\n      jump\n        /* \"smile.sol\":318:388  require(msg.sender == owner, \"Only the owner can perform this action\") */\n    tag_52:\n      sub(shl(0xa0, 0x01), 0x01)\n        /* \"smile.sol\":547:565  user != address(0) */\n      dup2\n      and\n        /* \"smile.sol\":539:585  require(user != address(0), \"Invalid address\") */\n      tag_55\n      jumpi\n      mload(0x40)\n      shl(0xe5, 0x461bcd)\n      dup2\n      mstore\n        /* \"#utility.yul\":1896:1898   */\n      0x20\n        /* \"smile.sol\":539:585  require(user != address(0), \"Invalid address\") */\n      0x04\n      dup3\n      add\n        /* \"#utility.yul\":1878:1899   */\n      mstore\n        /* \"#utility.yul\":1935:1937   */\n      0x0f\n        /* \"#utility.yul\":1915:1933   */\n      0x24\n      dup3\n      add\n        /* \"#utility.yul\":1908:1938   */\n      mstore\n        /* \"#utility.yul\":1974:1991   */\n      0x496e76616c696420616464726573730000000000000000000000000000000000\n        /* \"#utility.yul\":1954:1972   */\n      0x44\n      dup3\n      add\n        /* \"#utility.yul\":1947:1992   */\n      mstore\n        /* \"#utility.yul\":2009:2027   */\n      0x64\n      add\n        /* \"smile.sol\":539:585  require(user != address(0), \"Invalid address\") */\n      tag_42\n        /* \"#utility.yul\":1694:2033   */\n      jump\n        /* \"smile.sol\":539:585  require(user != address(0), \"Invalid address\") */\n    tag_55:\n        /* \"smile.sol\":621:631  0.01 ether */\n      0x2386f26fc10000\n        /* \"smile.sol\":666:687  address(this).balance */\n      selfbalance\n        /* \"smile.sol\":666:703  address(this).balance >= creditAmount */\n      dup2\n      gt\n      iszero\n        /* \"smile.sol\":644:761  require(... */\n      tag_58\n      jumpi\n      mload(0x40)\n      shl(0xe5, 0x461bcd)\n      dup2\n      mstore\n        /* \"#utility.yul\":2240:2242   */\n      0x20\n        /* \"smile.sol\":644:761  require(... */\n      0x04\n      dup3\n      add\n        /* \"#utility.yul\":2222:2243   */\n      mstore\n        /* \"#utility.yul\":2279:2281   */\n      0x1e\n        /* \"#utility.yul\":2259:2277   */\n      0x24\n      dup3\n      add\n        /* \"#utility.yul\":2252:2282   */\n      mstore\n        /* \"#utility.yul\":2318:2350   */\n      0x496e73756666696369656e742066756e647320696e20636f6e74726163740000\n        /* \"#utility.yul\":2298:2316   */\n      0x44\n      dup3\n      add\n        /* \"#utility.yul\":2291:2351   */\n      mstore\n        /* \"#utility.yul\":2368:2386   */\n      0x64\n      add\n        /* \"smile.sol\":644:761  require(... */\n      tag_42\n        /* \"#utility.yul\":2038:2392   */\n      jump\n        /* \"smile.sol\":644:761  require(... */\n    tag_58:\n      sub(shl(0xa0, 0x01), 0x01)\n        /* \"smile.sol\":774:788  balances[user] */\n      dup3\n      and\n      0x00\n      swap1\n      dup2\n      mstore\n        /* \"smile.sol\":774:782  balances */\n      0x01\n        /* \"smile.sol\":774:788  balances[user] */\n      0x20\n      mstore\n      0x40\n      dup2\n      keccak256\n        /* \"smile.sol\":774:804  balances[user] += creditAmount */\n      dup1\n      sload\n        /* \"smile.sol\":792:804  creditAmount */\n      dup4\n      swap3\n        /* \"smile.sol\":774:788  balances[user] */\n      swap1\n        /* \"smile.sol\":774:804  balances[user] += creditAmount */\n      tag_61\n      swap1\n        /* \"smile.sol\":792:804  creditAmount */\n      dup5\n      swap1\n        /* \"smile.sol\":774:804  balances[user] += creditAmount */\n      tag_62\n      jump\t// in\n    tag_61:\n      swap1\n      swap2\n      sstore\n      pop\n      pop\n        /* \"smile.sol\":822:848  Credit(user, creditAmount) */\n      mload(0x40)\n        /* \"#utility.yul\":160:185   */\n      dup2\n      dup2\n      mstore\n      sub(shl(0xa0, 0x01), 0x01)\n        /* \"smile.sol\":822:848  Credit(user, creditAmount) */\n      dup4\n      and\n      swap1\n      0x1bbf55d483639f8103dc4e035af71a4fbdb16c80be740fa3eef81198acefa094\n      swap1\n        /* \"#utility.yul\":148:150   */\n      0x20\n        /* \"#utility.yul\":133:151   */\n      add\n        /* \"smile.sol\":822:848  Credit(user, creditAmount) */\n      mload(0x40)\n      dup1\n      swap2\n      sub\n      swap1\n      log2\n        /* \"smile.sol\":528:856  {... */\n      pop\n        /* \"smile.sol\":475:856  function creditUser(address user) external onlyOwner {... */\n      pop\n      jump\t// out\n        /* \"smile.sol\":864:1034  function donate() external payable {... */\n    tag_39:\n        /* \"smile.sol\":930:931  0 */\n      0x00\n        /* \"smile.sol\":918:927  msg.value */\n      callvalue\n        /* \"smile.sol\":918:931  msg.value > 0 */\n      gt\n        /* \"smile.sol\":910:977  require(msg.value > 0, \"Donation amount must be greater than zero\") */\n      tag_65\n      jumpi\n      mload(0x40)\n      shl(0xe5, 0x461bcd)\n      dup2\n      mstore\n        /* \"#utility.yul\":2826:2828   */\n      0x20\n        /* \"smile.sol\":910:977  require(msg.value > 0, \"Donation amount must be greater than zero\") */\n      0x04\n      dup3\n      add\n        /* \"#utility.yul\":2808:2829   */\n      mstore\n        /* \"#utility.yul\":2865:2867   */\n      0x29\n        /* \"#utility.yul\":2845:2863   */\n      0x24\n      dup3\n      add\n        /* \"#utility.yul\":2838:2868   */\n      mstore\n        /* \"#utility.yul\":2904:2938   */\n      0x446f6e6174696f6e20616d6f756e74206d757374206265206772656174657220\n        /* \"#utility.yul\":2884:2902   */\n      0x44\n      dup3\n      add\n        /* \"#utility.yul\":2877:2939   */\n      mstore\n        /* \"#utility.yul\":2975:2986   */\n      0x7468616e207a65726f0000000000000000000000000000000000000000000000\n        /* \"#utility.yul\":2955:2973   */\n      0x64\n      dup3\n      add\n        /* \"#utility.yul\":2948:2987   */\n      mstore\n        /* \"#utility.yul\":3004:3023   */\n      0x84\n      add\n        /* \"smile.sol\":910:977  require(msg.value > 0, \"Donation amount must be greater than zero\") */\n      tag_42\n        /* \"#utility.yul\":2624:3029   */\n      jump\n        /* \"smile.sol\":910:977  require(msg.value > 0, \"Donation amount must be greater than zero\") */\n    tag_65:\n        /* \"smile.sol\":995:1026  Donation(msg.sender, msg.value) */\n      mload(0x40)\n        /* \"smile.sol\":1016:1025  msg.value */\n      callvalue\n        /* \"#utility.yul\":160:185   */\n      dup2\n      mstore\n        /* \"smile.sol\":1004:1014  msg.sender */\n      caller\n      swap1\n        /* \"smile.sol\":995:1026  Donation(msg.sender, msg.value) */\n      0x5d8bc849764969eb1bcc6d0a2f55999d0167c1ccec240a4f39cf664ca9c4148e\n      swap1\n        /* \"#utility.yul\":148:150   */\n      0x20\n        /* \"#utility.yul\":133:151   */\n      add\n        /* \"smile.sol\":995:1026  Donation(msg.sender, msg.value) */\n      mload(0x40)\n      dup1\n      swap2\n      sub\n      swap1\n      log2\n        /* \"smile.sol\":864:1034  function donate() external payable {... */\n      jump\t// out\n        /* \"#utility.yul\":196:505   */\n    tag_17:\n        /* \"#utility.yul\":255:261   */\n      0x00\n        /* \"#utility.yul\":308:310   */\n      0x20\n        /* \"#utility.yul\":296:305   */\n      dup3\n        /* \"#utility.yul\":287:294   */\n      dup5\n        /* \"#utility.yul\":283:306   */\n      sub\n        /* \"#utility.yul\":279:311   */\n      slt\n        /* \"#utility.yul\":276:328   */\n      iszero\n      tag_72\n      jumpi\n        /* \"#utility.yul\":324:325   */\n      0x00\n        /* \"#utility.yul\":321:322   */\n      dup1\n        /* \"#utility.yul\":314:326   */\n      revert\n        /* \"#utility.yul\":276:328   */\n    tag_72:\n        /* \"#utility.yul\":363:372   */\n      dup2\n        /* \"#utility.yul\":350:373   */\n      calldataload\n      sub(shl(0xa0, 0x01), 0x01)\n        /* \"#utility.yul\":406:411   */\n      dup2\n        /* \"#utility.yul\":402:456   */\n      and\n        /* \"#utility.yul\":395:400   */\n      dup2\n        /* \"#utility.yul\":392:457   */\n      eq\n        /* \"#utility.yul\":382:475   */\n      tag_73\n      jumpi\n        /* \"#utility.yul\":471:472   */\n      0x00\n        /* \"#utility.yul\":468:469   */\n      dup1\n        /* \"#utility.yul\":461:473   */\n      revert\n        /* \"#utility.yul\":382:475   */\n    tag_73:\n        /* \"#utility.yul\":494:499   */\n      swap4\n        /* \"#utility.yul\":196:505   */\n      swap3\n      pop\n      pop\n      pop\n      jump\t// out\n        /* \"#utility.yul\":510:690   */\n    tag_23:\n        /* \"#utility.yul\":569:575   */\n      0x00\n        /* \"#utility.yul\":622:624   */\n      0x20\n        /* \"#utility.yul\":610:619   */\n      dup3\n        /* \"#utility.yul\":601:608   */\n      dup5\n        /* \"#utility.yul\":597:620   */\n      sub\n        /* \"#utility.yul\":593:625   */\n      slt\n        /* \"#utility.yul\":590:642   */\n      iszero\n      tag_75\n      jumpi\n        /* \"#utility.yul\":638:639   */\n      0x00\n        /* \"#utility.yul\":635:636   */\n      dup1\n        /* \"#utility.yul\":628:640   */\n      revert\n        /* \"#utility.yul\":590:642   */\n    tag_75:\n      pop\n        /* \"#utility.yul\":661:684   */\n      calldataload\n      swap2\n        /* \"#utility.yul\":510:690   */\n      swap1\n      pop\n      jump\t// out\n        /* \"#utility.yul\":2397:2619   */\n    tag_62:\n        /* \"#utility.yul\":2462:2471   */\n      dup1\n      dup3\n      add\n        /* \"#utility.yul\":2483:2493   */\n      dup1\n      dup3\n      gt\n        /* \"#utility.yul\":2480:2613   */\n      iszero\n      tag_82\n      jumpi\n        /* \"#utility.yul\":2535:2545   */\n      0x4e487b71\n        /* \"#utility.yul\":2530:2533   */\n      0xe0\n        /* \"#utility.yul\":2526:2546   */\n      shl\n        /* \"#utility.yul\":2523:2524   */\n      0x00\n        /* \"#utility.yul\":2516:2547   */\n      mstore\n        /* \"#utility.yul\":2570:2574   */\n      0x11\n        /* \"#utility.yul\":2567:2568   */\n      0x04\n        /* \"#utility.yul\":2560:2575   */\n      mstore\n        /* \"#utility.yul\":2598:2602   */\n      0x24\n        /* \"#utility.yul\":2595:2596   */\n      0x00\n        /* \"#utility.yul\":2588:2603   */\n      revert\n        /* \"#utility.yul\":2480:2613   */\n    tag_82:\n        /* \"#utility.yul\":2397:2619   */\n      swap3\n      swap2\n      pop\n      pop\n      jump\t// out\n\n    auxdata: 0xa26469706673582212206cfc5a5dc4c5090be5f1caab0a5b430876474c6da61c5a29923fe64c71099bbf64736f6c63430008190033\n}\n",
    "bytecode": {
      "linkReferences": {},
      "object": "6080604052348015600e575f80fd5b505f80546001600160a01b0319163317905561053a8061002d5f395ff3fe608060405260043610610066575f3560e01c8063c71daccb11610041578063c71daccb1461013b578063e89e3ac71461014d578063ed88c68e1461016c575f80fd5b806327e235e3146100a65780632e1a7d4d146100e45780638da5cb5b14610105575f80fd5b366100a25760405134815233907f5d8bc849764969eb1bcc6d0a2f55999d0167c1ccec240a4f39cf664ca9c4148e9060200160405180910390a2005b5f80fd5b3480156100b1575f80fd5b506100d16100c036600461049b565b60016020525f908152604090205481565b6040519081526020015b60405180910390f35b3480156100ef575f80fd5b506101036100fe3660046104c8565b610174565b005b348015610110575f80fd5b505f54610123906001600160a01b031681565b6040516001600160a01b0390911681526020016100db565b348015610146575f80fd5b50476100d1565b348015610158575f80fd5b5061010361016736600461049b565b61026b565b6101036103ef565b5f546001600160a01b031633146101e15760405162461bcd60e51b815260206004820152602660248201527f4f6e6c7920746865206f776e65722063616e20706572666f726d20746869732060448201526530b1ba34b7b760d11b60648201526084015b60405180910390fd5b478111156102315760405162461bcd60e51b815260206004820181905260248201527f496e73756666696369656e742062616c616e636520746f20776974686472617760448201526064016101d8565b5f80546040516001600160a01b039091169183156108fc02918491818181858888f19350505050158015610267573d5f803e3d5ffd5b5050565b5f546001600160a01b031633146102d35760405162461bcd60e51b815260206004820152602660248201527f4f6e6c7920746865206f776e65722063616e20706572666f726d20746869732060448201526530b1ba34b7b760d11b60648201526084016101d8565b6001600160a01b0381166103295760405162461bcd60e51b815260206004820152600f60248201527f496e76616c69642061646472657373000000000000000000000000000000000060448201526064016101d8565b662386f26fc10000478111156103815760405162461bcd60e51b815260206004820152601e60248201527f496e73756666696369656e742066756e647320696e20636f6e7472616374000060448201526064016101d8565b6001600160a01b0382165f90815260016020526040812080548392906103a89084906104df565b90915550506040518181526001600160a01b038316907f1bbf55d483639f8103dc4e035af71a4fbdb16c80be740fa3eef81198acefa0949060200160405180910390a25050565b5f34116104645760405162461bcd60e51b815260206004820152602960248201527f446f6e6174696f6e20616d6f756e74206d75737420626520677265617465722060448201527f7468616e207a65726f000000000000000000000000000000000000000000000060648201526084016101d8565b60405134815233907f5d8bc849764969eb1bcc6d0a2f55999d0167c1ccec240a4f39cf664ca9c4148e9060200160405180910390a2565b5f602082840312156104ab575f80fd5b81356001600160a01b03811681146104c1575f80fd5b9392505050565b5f602082840312156104d8575f80fd5b5035919050565b808201808211156104fe57634e487b7160e01b5f52601160045260245ffd5b9291505056fea26469706673582212206cfc5a5dc4c5090be5f1caab0a5b430876474c6da61c5a29923fe64c71099bbf64736f6c63430008190033",
      "opcodes": "PUSH1 0x80 PUSH1 0x40 MSTORE CALLVALUE DUP1 ISZERO PUSH1 0xE JUMPI PUSH0 DUP1 REVERT JUMPDEST POP PUSH0 DUP1 SLOAD PUSH1 0x1 PUSH1 0x1 PUSH1 0xA0 SHL SUB NOT AND CALLER OR SWAP1 SSTORE PUSH2 0x53A DUP1 PUSH2 0x2D PUSH0 CODECOPY PUSH0 RETURN INVALID PUSH1 0x80 PUSH1 0x40 MSTORE PUSH1 0x4 CALLDATASIZE LT PUSH2 0x66 JUMPI PUSH0 CALLDATALOAD PUSH1 0xE0 SHR DUP1 PUSH4 0xC71DACCB GT PUSH2 0x41 JUMPI DUP1 PUSH4 0xC71DACCB EQ PUSH2 0x13B JUMPI DUP1 PUSH4 0xE89E3AC7 EQ PUSH2 0x14D JUMPI DUP1 PUSH4 0xED88C68E EQ PUSH2 0x16C JUMPI PUSH0 DUP1 REVERT JUMPDEST DUP1 PUSH4 0x27E235E3 EQ PUSH2 0xA6 JUMPI DUP1 PUSH4 0x2E1A7D4D EQ PUSH2 0xE4 JUMPI DUP1 PUSH4 0x8DA5CB5B EQ PUSH2 0x105 JUMPI PUSH0 DUP1 REVERT JUMPDEST CALLDATASIZE PUSH2 0xA2 JUMPI PUSH1 0x40 MLOAD CALLVALUE DUP2 MSTORE CALLER SWAP1 PUSH32 0x5D8BC849764969EB1BCC6D0A2F55999D0167C1CCEC240A4F39CF664CA9C4148E SWAP1 PUSH1 0x20 ADD PUSH1 0x40 MLOAD DUP1 SWAP2 SUB SWAP1 LOG2 STOP JUMPDEST PUSH0 DUP1 REVERT JUMPDEST CALLVALUE DUP1 ISZERO PUSH2 0xB1 JUMPI PUSH0 DUP1 REVERT JUMPDEST POP PUSH2 0xD1 PUSH2 0xC0 CALLDATASIZE PUSH1 0x4 PUSH2 0x49B JUMP JUMPDEST PUSH1 0x1 PUSH1 0x20 MSTORE PUSH0 SWAP1 DUP2 MSTORE PUSH1 0x40 SWAP1 KECCAK256 SLOAD DUP2 JUMP JUMPDEST PUSH1 0x40 MLOAD SWAP1 DUP2 MSTORE PUSH1 0x20 ADD JUMPDEST PUSH1 0x40 MLOAD DUP1 SWAP2 SUB SWAP1 RETURN JUMPDEST CALLVALUE DUP1 ISZERO PUSH2 0xEF JUMPI PUSH0 DUP1 REVERT JUMPDEST POP PUSH2 0x103 PUSH2 0xFE CALLDATASIZE PUSH1 0x4 PUSH2 0x4C8 JUMP JUMPDEST PUSH2 0x174 JUMP JUMPDEST STOP JUMPDEST CALLVALUE DUP1 ISZERO PUSH2 0x110 JUMPI PUSH0 DUP1 REVERT JUMPDEST POP PUSH0 SLOAD PUSH2 0x123 SWAP1 PUSH1 0x1 PUSH1 0x1 PUSH1 0xA0 SHL SUB AND DUP2 JUMP JUMPDEST PUSH1 0x40 MLOAD PUSH1 0x1 PUSH1 0x1 PUSH1 0xA0 SHL SUB SWAP1 SWAP2 AND DUP2 MSTORE PUSH1 0x20 ADD PUSH2 0xDB JUMP JUMPDEST CALLVALUE DUP1 ISZERO PUSH2 0x146 JUMPI PUSH0 DUP1 REVERT JUMPDEST POP SELFBALANCE PUSH2 0xD1 JUMP JUMPDEST CALLVALUE DUP1 ISZERO PUSH2 0x158 JUMPI PUSH0 DUP1 REVERT JUMPDEST POP PUSH2 0x103 PUSH2 0x167 CALLDATASIZE PUSH1 0x4 PUSH2 0x49B JUMP JUMPDEST PUSH2 0x26B JUMP JUMPDEST PUSH2 0x103 PUSH2 0x3EF JUMP JUMPDEST PUSH0 SLOAD PUSH1 0x1 PUSH1 0x1 PUSH1 0xA0 SHL SUB AND CALLER EQ PUSH2 0x1E1 JUMPI PUSH1 0x40 MLOAD PUSH3 0x461BCD PUSH1 0xE5 SHL DUP2 MSTORE PUSH1 0x20 PUSH1 0x4 DUP3 ADD MSTORE PUSH1 0x26 PUSH1 0x24 DUP3 ADD MSTORE PUSH32 0x4F6E6C7920746865206F776E65722063616E20706572666F726D207468697320 PUSH1 0x44 DUP3 ADD MSTORE PUSH6 0x30B1BA34B7B7 PUSH1 0xD1 SHL PUSH1 0x64 DUP3 ADD MSTORE PUSH1 0x84 ADD JUMPDEST PUSH1 0x40 MLOAD DUP1 SWAP2 SUB SWAP1 REVERT JUMPDEST SELFBALANCE DUP2 GT ISZERO PUSH2 0x231 JUMPI PUSH1 0x40 MLOAD PUSH3 0x461BCD PUSH1 0xE5 SHL DUP2 MSTORE PUSH1 0x20 PUSH1 0x4 DUP3 ADD DUP2 SWAP1 MSTORE PUSH1 0x24 DUP3 ADD MSTORE PUSH32 0x496E73756666696369656E742062616C616E636520746F207769746864726177 PUSH1 0x44 DUP3 ADD MSTORE PUSH1 0x64 ADD PUSH2 0x1D8 JUMP JUMPDEST PUSH0 DUP1 SLOAD PUSH1 0x40 MLOAD PUSH1 0x1 PUSH1 0x1 PUSH1 0xA0 SHL SUB SWAP1 SWAP2 AND SWAP2 DUP4 ISZERO PUSH2 0x8FC MUL SWAP2 DUP5 SWAP2 DUP2 DUP2 DUP2 DUP6 DUP9 DUP9 CALL SWAP4 POP POP POP POP ISZERO DUP1 ISZERO PUSH2 0x267 JUMPI RETURNDATASIZE PUSH0 DUP1 RETURNDATACOPY RETURNDATASIZE PUSH0 REVERT JUMPDEST POP POP JUMP JUMPDEST PUSH0 SLOAD PUSH1 0x1 PUSH1 0x1 PUSH1 0xA0 SHL SUB AND CALLER EQ PUSH2 0x2D3 JUMPI PUSH1 0x40 MLOAD PUSH3 0x461BCD PUSH1 0xE5 SHL DUP2 MSTORE PUSH1 0x20 PUSH1 0x4 DUP3 ADD MSTORE PUSH1 0x26 PUSH1 0x24 DUP3 ADD MSTORE PUSH32 0x4F6E6C7920746865206F776E65722063616E20706572666F726D207468697320 PUSH1 0x44 DUP3 ADD MSTORE PUSH6 0x30B1BA34B7B7 PUSH1 0xD1 SHL PUSH1 0x64 DUP3 ADD MSTORE PUSH1 0x84 ADD PUSH2 0x1D8 JUMP JUMPDEST PUSH1 0x1 PUSH1 0x1 PUSH1 0xA0 SHL SUB DUP2 AND PUSH2 0x329 JUMPI PUSH1 0x40 MLOAD PUSH3 0x461BCD PUSH1 0xE5 SHL DUP2 MSTORE PUSH1 0x20 PUSH1 0x4 DUP3 ADD MSTORE PUSH1 0xF PUSH1 0x24 DUP3 ADD MSTORE PUSH32 0x496E76616C696420616464726573730000000000000000000000000000000000 PUSH1 0x44 DUP3 ADD MSTORE PUSH1 0x64 ADD PUSH2 0x1D8 JUMP JUMPDEST PUSH7 0x2386F26FC10000 SELFBALANCE DUP2 GT ISZERO PUSH2 0x381 JUMPI PUSH1 0x40 MLOAD PUSH3 0x461BCD PUSH1 0xE5 SHL DUP2 MSTORE PUSH1 0x20 PUSH1 0x4 DUP3 ADD MSTORE PUSH1 0x1E PUSH1 0x24 DUP3 ADD MSTORE PUSH32 0x496E73756666696369656E742066756E647320696E20636F6E74726163740000 PUSH1 0x44 DUP3 ADD MSTORE PUSH1 0x64 ADD PUSH2 0x1D8 JUMP JUMPDEST PUSH1 0x1 PUSH1 0x1 PUSH1 0xA0 SHL SUB DUP3 AND PUSH0 SWAP1 DUP2 MSTORE PUSH1 0x1 PUSH1 0x20 MSTORE PUSH1 0x40 DUP2 KECCAK256 DUP1 SLOAD DUP4 SWAP3 SWAP1 PUSH2 0x3A8 SWAP1 DUP5 SWAP1 PUSH2 0x4DF JUMP JUMPDEST SWAP1 SWAP2 SSTORE POP POP PUSH1 0x40 MLOAD DUP2 DUP2 MSTORE PUSH1 0x1 PUSH1 0x1 PUSH1 0xA0 SHL SUB DUP4 AND SWAP1 PUSH32 0x1BBF55D483639F8103DC4E035AF71A4FBDB16C80BE740FA3EEF81198ACEFA094 SWAP1 PUSH1 0x20 ADD PUSH1 0x40 MLOAD DUP1 SWAP2 SUB SWAP1 LOG2 POP POP JUMP JUMPDEST PUSH0 CALLVALUE GT PUSH2 0x464 JUMPI PUSH1 0x40 MLOAD PUSH3 0x461BCD PUSH1 0xE5 SHL DUP2 MSTORE PUSH1 0x20 PUSH1 0x4 DUP3 ADD MSTORE PUSH1 0x29 PUSH1 0x24 DUP3 ADD MSTORE PUSH32 0x446F6E6174696F6E20616D6F756E74206D757374206265206772656174657220 PUSH1 0x44 DUP3 ADD MSTORE PUSH32 0x7468616E207A65726F0000000000000000000000000000000000000000000000 PUSH1 0x64 DUP3 ADD MSTORE PUSH1 0x84 ADD PUSH2 0x1D8 JUMP JUMPDEST PUSH1 0x40 MLOAD CALLVALUE DUP2 MSTORE CALLER SWAP1 PUSH32 0x5D8BC849764969EB1BCC6D0A2F55999D0167C1CCEC240A4F39CF664CA9C4148E SWAP1 PUSH1 0x20 ADD PUSH1 0x40 MLOAD DUP1 SWAP2 SUB SWAP1 LOG2 JUMP JUMPDEST PUSH0 PUSH1 0x20 DUP3 DUP5 SUB SLT ISZERO PUSH2 0x4AB JUMPI PUSH0 DUP1 REVERT JUMPDEST DUP2 CALLDATALOAD PUSH1 0x1 PUSH1 0x1 PUSH1 0xA0 SHL SUB DUP2 AND DUP2 EQ PUSH2 0x4C1 JUMPI PUSH0 DUP1 REVERT JUMPDEST SWAP4 SWAP3 POP POP POP JUMP JUMPDEST PUSH0 PUSH1 0x20 DUP3 DUP5 SUB SLT ISZERO PUSH2 0x4D8 JUMPI PUSH0 DUP1 REVERT JUMPDEST POP CALLDATALOAD SWAP2 SWAP1 POP JUMP JUMPDEST DUP1 DUP3 ADD DUP1 DUP3 GT ISZERO PUSH2 0x4FE JUMPI PUSH4 0x4E487B71 PUSH1 0xE0 SHL PUSH0 MSTORE PUSH1 0x11 PUSH1 0x4 MSTORE PUSH1 0x24 PUSH0 REVERT JUMPDEST SWAP3 SWAP2 POP POP JUMP INVALID LOG2 PUSH5 0x6970667358 0x22 SLT KECCAK256 PUSH13 0xFC5A5DC4C5090BE5F1CAAB0A5B NUMBER ADDMOD PUSH23 0x474C6DA61C5A29923FE64C71099BBF64736F6C63430008 NOT STOP CALLER "
    },
    "gasEstimates": {
      "creation": {
        "codeDepositCost": "267600",
        "executionCost": "24538",
        "totalCost": "292138"
      },
      "external": {
        "balances(address)": "2471",
        "checkBalance()": "182",
        "creditUser(address)": "28341",
        "donate()": "1620",
        "owner()": "2380",
        "withdraw(uint256)": "infinite"
      }
    },
    "methodIdentifiers": {
      "balances(address)": "27e235e3",
      "checkBalance()": "c71daccb",
      "creditUser(address)": "e89e3ac7",
      "donate()": "ed88c68e",
      "owner()": "8da5cb5b",
      "withdraw(uint256)": "2e1a7d4d"
    }
  },
  "storageLayout": {
    "storage": [
      {
        "astId": 3,
        "contract": "smile.sol:SmileCredit",
        "label": "owner",
        "offset": 0,
        "slot": "0",
        "type": "t_address"
      },
      {
        "astId": 7,
        "contract": "smile.sol:SmileCredit",
        "label": "balances",
        "offset": 0,
        "slot": "1",
        "type": "t_mapping(t_address,t_uint256)"
      }
    ],
    "types": {
      "t_address": {
        "encoding": "inplace",
        "label": "address",
        "numberOfBytes": "20"
      },
      "t_mapping(t_address,t_uint256)": {
        "encoding": "mapping",
        "key": "t_address",
        "label": "mapping(address => uint256)",
        "numberOfBytes": "32",
        "value": "t_uint256"
      },
      "t_uint256": {
        "encoding": "inplace",
        "label": "uint256",
        "numberOfBytes": "32"
      }
    }
  },
  "userdoc": {
    "kind": "user",
    "methods": {},
    "version": 1
  }
}